{
  "contractName": "Vault",
  "abi": [
    {
      "inputs": [
        {
          "internalType": "address",
          "name": "_token",
          "type": "address"
        },
        {
          "internalType": "string",
          "name": "_name",
          "type": "string"
        },
        {
          "internalType": "string",
          "name": "_symbol",
          "type": "string"
        },
        {
          "internalType": "uint256",
          "name": "_approvalDelay",
          "type": "uint256"
        }
      ],
      "stateMutability": "nonpayable",
      "type": "constructor"
    },
    {
      "anonymous": false,
      "inputs": [
        {
          "indexed": true,
          "internalType": "address",
          "name": "owner",
          "type": "address"
        },
        {
          "indexed": true,
          "internalType": "address",
          "name": "spender",
          "type": "address"
        },
        {
          "indexed": false,
          "internalType": "uint256",
          "name": "value",
          "type": "uint256"
        }
      ],
      "name": "Approval",
      "type": "event"
    },
    {
      "anonymous": false,
      "inputs": [
        {
          "indexed": false,
          "internalType": "address",
          "name": "user",
          "type": "address"
        },
        {
          "indexed": false,
          "internalType": "uint256",
          "name": "amount",
          "type": "uint256"
        },
        {
          "indexed": false,
          "internalType": "uint256",
          "name": "total",
          "type": "uint256"
        }
      ],
      "name": "DepositsIncremented",
      "type": "event"
    },
    {
      "anonymous": false,
      "inputs": [
        {
          "indexed": false,
          "internalType": "address",
          "name": "implementation",
          "type": "address"
        }
      ],
      "name": "NewStratCandidate",
      "type": "event"
    },
    {
      "anonymous": false,
      "inputs": [
        {
          "indexed": true,
          "internalType": "address",
          "name": "previousOwner",
          "type": "address"
        },
        {
          "indexed": true,
          "internalType": "address",
          "name": "newOwner",
          "type": "address"
        }
      ],
      "name": "OwnershipTransferred",
      "type": "event"
    },
    {
      "anonymous": false,
      "inputs": [
        {
          "indexed": false,
          "internalType": "address",
          "name": "user",
          "type": "address"
        }
      ],
      "name": "TermsAccepted",
      "type": "event"
    },
    {
      "anonymous": false,
      "inputs": [
        {
          "indexed": true,
          "internalType": "address",
          "name": "from",
          "type": "address"
        },
        {
          "indexed": true,
          "internalType": "address",
          "name": "to",
          "type": "address"
        },
        {
          "indexed": false,
          "internalType": "uint256",
          "name": "value",
          "type": "uint256"
        }
      ],
      "name": "Transfer",
      "type": "event"
    },
    {
      "anonymous": false,
      "inputs": [
        {
          "indexed": false,
          "internalType": "address",
          "name": "implementation",
          "type": "address"
        }
      ],
      "name": "UpgradeStrat",
      "type": "event"
    },
    {
      "anonymous": false,
      "inputs": [
        {
          "indexed": false,
          "internalType": "address",
          "name": "user",
          "type": "address"
        },
        {
          "indexed": false,
          "internalType": "uint256",
          "name": "amount",
          "type": "uint256"
        },
        {
          "indexed": false,
          "internalType": "uint256",
          "name": "total",
          "type": "uint256"
        }
      ],
      "name": "WithdrawalsIncremented",
      "type": "event"
    },
    {
      "inputs": [
        {
          "internalType": "address",
          "name": "owner",
          "type": "address"
        },
        {
          "internalType": "address",
          "name": "spender",
          "type": "address"
        }
      ],
      "name": "allowance",
      "outputs": [
        {
          "internalType": "uint256",
          "name": "",
          "type": "uint256"
        }
      ],
      "stateMutability": "view",
      "type": "function",
      "constant": true
    },
    {
      "inputs": [],
      "name": "approvalDelay",
      "outputs": [
        {
          "internalType": "uint256",
          "name": "",
          "type": "uint256"
        }
      ],
      "stateMutability": "view",
      "type": "function",
      "constant": true
    },
    {
      "inputs": [
        {
          "internalType": "address",
          "name": "spender",
          "type": "address"
        },
        {
          "internalType": "uint256",
          "name": "amount",
          "type": "uint256"
        }
      ],
      "name": "approve",
      "outputs": [
        {
          "internalType": "bool",
          "name": "",
          "type": "bool"
        }
      ],
      "stateMutability": "nonpayable",
      "type": "function"
    },
    {
      "inputs": [
        {
          "internalType": "address",
          "name": "account",
          "type": "address"
        }
      ],
      "name": "balanceOf",
      "outputs": [
        {
          "internalType": "uint256",
          "name": "",
          "type": "uint256"
        }
      ],
      "stateMutability": "view",
      "type": "function",
      "constant": true
    },
    {
      "inputs": [],
      "name": "constructionTime",
      "outputs": [
        {
          "internalType": "uint256",
          "name": "",
          "type": "uint256"
        }
      ],
      "stateMutability": "view",
      "type": "function",
      "constant": true
    },
    {
      "inputs": [
        {
          "internalType": "address",
          "name": "",
          "type": "address"
        }
      ],
      "name": "cumulativeDeposits",
      "outputs": [
        {
          "internalType": "uint256",
          "name": "",
          "type": "uint256"
        }
      ],
      "stateMutability": "view",
      "type": "function",
      "constant": true
    },
    {
      "inputs": [
        {
          "internalType": "address",
          "name": "",
          "type": "address"
        }
      ],
      "name": "cumulativeWithdrawals",
      "outputs": [
        {
          "internalType": "uint256",
          "name": "",
          "type": "uint256"
        }
      ],
      "stateMutability": "view",
      "type": "function",
      "constant": true
    },
    {
      "inputs": [],
      "name": "decimals",
      "outputs": [
        {
          "internalType": "uint8",
          "name": "",
          "type": "uint8"
        }
      ],
      "stateMutability": "view",
      "type": "function",
      "constant": true
    },
    {
      "inputs": [
        {
          "internalType": "address",
          "name": "spender",
          "type": "address"
        },
        {
          "internalType": "uint256",
          "name": "subtractedValue",
          "type": "uint256"
        }
      ],
      "name": "decreaseAllowance",
      "outputs": [
        {
          "internalType": "bool",
          "name": "",
          "type": "bool"
        }
      ],
      "stateMutability": "nonpayable",
      "type": "function"
    },
    {
      "inputs": [
        {
          "internalType": "address",
          "name": "",
          "type": "address"
        }
      ],
      "name": "hasReadAndAcceptedTerms",
      "outputs": [
        {
          "internalType": "bool",
          "name": "",
          "type": "bool"
        }
      ],
      "stateMutability": "view",
      "type": "function",
      "constant": true
    },
    {
      "inputs": [
        {
          "internalType": "address",
          "name": "spender",
          "type": "address"
        },
        {
          "internalType": "uint256",
          "name": "addedValue",
          "type": "uint256"
        }
      ],
      "name": "increaseAllowance",
      "outputs": [
        {
          "internalType": "bool",
          "name": "",
          "type": "bool"
        }
      ],
      "stateMutability": "nonpayable",
      "type": "function"
    },
    {
      "inputs": [],
      "name": "initialized",
      "outputs": [
        {
          "internalType": "bool",
          "name": "",
          "type": "bool"
        }
      ],
      "stateMutability": "view",
      "type": "function",
      "constant": true
    },
    {
      "inputs": [],
      "name": "name",
      "outputs": [
        {
          "internalType": "string",
          "name": "",
          "type": "string"
        }
      ],
      "stateMutability": "view",
      "type": "function",
      "constant": true
    },
    {
      "inputs": [],
      "name": "owner",
      "outputs": [
        {
          "internalType": "address",
          "name": "",
          "type": "address"
        }
      ],
      "stateMutability": "view",
      "type": "function",
      "constant": true
    },
    {
      "inputs": [],
      "name": "renounceOwnership",
      "outputs": [],
      "stateMutability": "nonpayable",
      "type": "function"
    },
    {
      "inputs": [],
      "name": "stratCandidate",
      "outputs": [
        {
          "internalType": "address",
          "name": "implementation",
          "type": "address"
        },
        {
          "internalType": "uint256",
          "name": "proposedTime",
          "type": "uint256"
        }
      ],
      "stateMutability": "view",
      "type": "function",
      "constant": true
    },
    {
      "inputs": [],
      "name": "strategy",
      "outputs": [
        {
          "internalType": "address",
          "name": "",
          "type": "address"
        }
      ],
      "stateMutability": "view",
      "type": "function",
      "constant": true
    },
    {
      "inputs": [],
      "name": "symbol",
      "outputs": [
        {
          "internalType": "string",
          "name": "",
          "type": "string"
        }
      ],
      "stateMutability": "view",
      "type": "function",
      "constant": true
    },
    {
      "inputs": [],
      "name": "token",
      "outputs": [
        {
          "internalType": "contract IERC20",
          "name": "",
          "type": "address"
        }
      ],
      "stateMutability": "view",
      "type": "function",
      "constant": true
    },
    {
      "inputs": [],
      "name": "totalSupply",
      "outputs": [
        {
          "internalType": "uint256",
          "name": "",
          "type": "uint256"
        }
      ],
      "stateMutability": "view",
      "type": "function",
      "constant": true
    },
    {
      "inputs": [
        {
          "internalType": "address",
          "name": "recipient",
          "type": "address"
        },
        {
          "internalType": "uint256",
          "name": "amount",
          "type": "uint256"
        }
      ],
      "name": "transfer",
      "outputs": [
        {
          "internalType": "bool",
          "name": "",
          "type": "bool"
        }
      ],
      "stateMutability": "nonpayable",
      "type": "function"
    },
    {
      "inputs": [
        {
          "internalType": "address",
          "name": "sender",
          "type": "address"
        },
        {
          "internalType": "address",
          "name": "recipient",
          "type": "address"
        },
        {
          "internalType": "uint256",
          "name": "amount",
          "type": "uint256"
        }
      ],
      "name": "transferFrom",
      "outputs": [
        {
          "internalType": "bool",
          "name": "",
          "type": "bool"
        }
      ],
      "stateMutability": "nonpayable",
      "type": "function"
    },
    {
      "inputs": [
        {
          "internalType": "address",
          "name": "newOwner",
          "type": "address"
        }
      ],
      "name": "transferOwnership",
      "outputs": [],
      "stateMutability": "nonpayable",
      "type": "function"
    },
    {
      "inputs": [
        {
          "internalType": "address",
          "name": "_strategy",
          "type": "address"
        }
      ],
      "name": "initialize",
      "outputs": [
        {
          "internalType": "bool",
          "name": "",
          "type": "bool"
        }
      ],
      "stateMutability": "nonpayable",
      "type": "function"
    },
    {
      "inputs": [],
      "name": "agreeToTerms",
      "outputs": [
        {
          "internalType": "bool",
          "name": "",
          "type": "bool"
        }
      ],
      "stateMutability": "nonpayable",
      "type": "function"
    },
    {
      "inputs": [],
      "name": "balance",
      "outputs": [
        {
          "internalType": "uint256",
          "name": "",
          "type": "uint256"
        }
      ],
      "stateMutability": "view",
      "type": "function",
      "constant": true
    },
    {
      "inputs": [],
      "name": "available",
      "outputs": [
        {
          "internalType": "uint256",
          "name": "",
          "type": "uint256"
        }
      ],
      "stateMutability": "view",
      "type": "function",
      "constant": true
    },
    {
      "inputs": [],
      "name": "getPricePerFullShare",
      "outputs": [
        {
          "internalType": "uint256",
          "name": "",
          "type": "uint256"
        }
      ],
      "stateMutability": "view",
      "type": "function",
      "constant": true
    },
    {
      "inputs": [],
      "name": "depositAll",
      "outputs": [],
      "stateMutability": "nonpayable",
      "type": "function"
    },
    {
      "inputs": [
        {
          "internalType": "uint256",
          "name": "_amount",
          "type": "uint256"
        }
      ],
      "name": "deposit",
      "outputs": [],
      "stateMutability": "nonpayable",
      "type": "function"
    },
    {
      "inputs": [],
      "name": "earn",
      "outputs": [],
      "stateMutability": "nonpayable",
      "type": "function"
    },
    {
      "inputs": [],
      "name": "withdrawAll",
      "outputs": [],
      "stateMutability": "nonpayable",
      "type": "function"
    },
    {
      "inputs": [
        {
          "internalType": "uint256",
          "name": "_shares",
          "type": "uint256"
        }
      ],
      "name": "withdraw",
      "outputs": [],
      "stateMutability": "nonpayable",
      "type": "function"
    },
    {
      "inputs": [
        {
          "internalType": "address",
          "name": "_implementation",
          "type": "address"
        }
      ],
      "name": "proposeStrat",
      "outputs": [],
      "stateMutability": "nonpayable",
      "type": "function"
    },
    {
      "inputs": [],
      "name": "upgradeStrat",
      "outputs": [],
      "stateMutability": "nonpayable",
      "type": "function"
    },
    {
      "inputs": [
        {
          "internalType": "address",
          "name": "_token",
          "type": "address"
        }
      ],
      "name": "inCaseTokensGetStuck",
      "outputs": [],
      "stateMutability": "nonpayable",
      "type": "function"
    }
  ],
  "bytecode": "0x60a06040526000600960146101000a81548160ff0219169083151502179055503480156200002c57600080fd5b506040516200487138038062004871833981810160405281019062000052919062000334565b828281600390805190602001906200006c929190620001d8565b50806004908051906020019062000085929190620001d8565b505050620000a86200009c6200010a60201b60201c565b6200011260201b60201c565b600160068190555083600b60006101000a81548173ffffffffffffffffffffffffffffffffffffffff021916908373ffffffffffffffffffffffffffffffffffffffff160217905550806080818152505042600a8190555050505050620005da565b600033905090565b6000600560009054906101000a900473ffffffffffffffffffffffffffffffffffffffff16905081600560006101000a81548173ffffffffffffffffffffffffffffffffffffffff021916908373ffffffffffffffffffffffffffffffffffffffff1602179055508173ffffffffffffffffffffffffffffffffffffffff168173ffffffffffffffffffffffffffffffffffffffff167f8be0079c531659141344cd1fd0a4f28419497f9722a3daafe3b4186f6b6457e060405160405180910390a35050565b828054620001e690620004b7565b90600052602060002090601f0160209004810192826200020a576000855562000256565b82601f106200022557805160ff191683800117855562000256565b8280016001018555821562000256579182015b828111156200025557825182559160200191906001019062000238565b5b50905062000265919062000269565b5090565b5b80821115620002845760008160009055506001016200026a565b5090565b60006200029f62000299846200040d565b620003e4565b905082815260208101848484011115620002be57620002bd62000586565b5b620002cb84828562000481565b509392505050565b600081519050620002e481620005a6565b92915050565b600082601f83011262000302576200030162000581565b5b81516200031484826020860162000288565b91505092915050565b6000815190506200032e81620005c0565b92915050565b6000806000806080858703121562000351576200035062000590565b5b60006200036187828801620002d3565b945050602085015167ffffffffffffffff8111156200038557620003846200058b565b5b6200039387828801620002ea565b935050604085015167ffffffffffffffff811115620003b757620003b66200058b565b5b620003c587828801620002ea565b9250506060620003d8878288016200031d565b91505092959194509250565b6000620003f062000403565b9050620003fe8282620004ed565b919050565b6000604051905090565b600067ffffffffffffffff8211156200042b576200042a62000552565b5b620004368262000595565b9050602081019050919050565b6000620004508262000457565b9050919050565b600073ffffffffffffffffffffffffffffffffffffffff82169050919050565b6000819050919050565b60005b83811015620004a157808201518184015260208101905062000484565b83811115620004b1576000848401525b50505050565b60006002820490506001821680620004d057607f821691505b60208210811415620004e757620004e662000523565b5b50919050565b620004f88262000595565b810181811067ffffffffffffffff821117156200051a576200051962000552565b5b80604052505050565b7f4e487b7100000000000000000000000000000000000000000000000000000000600052602260045260246000fd5b7f4e487b7100000000000000000000000000000000000000000000000000000000600052604160045260246000fd5b600080fd5b600080fd5b600080fd5b600080fd5b6000601f19601f8301169050919050565b620005b18162000443565b8114620005bd57600080fd5b50565b620005cb8162000477565b8114620005d757600080fd5b50565b608051614274620005fd60003960008181611d230152611e5c01526142746000f3fe608060405234801561001057600080fd5b506004361061021c5760003560e01c8063a457c2d711610125578063d389800f116100ad578063e2d1e75c1161007c578063e2d1e75c14610632578063e668524414610650578063f06c56101461065a578063f2fde38b14610678578063fc0c546a146106945761021c565b8063d389800f146105d2578063dd62ed3e146105dc578063de5f62681461060c578063def68a9c146106165761021c565b8063b3ca3188116100f4578063b3ca31881461051a578063b69ef8a81461054a578063b6b55f2514610568578063c4d66de814610584578063d17d3503146105b45761021c565b8063a457c2d71461046c578063a6c8220e1461049c578063a8c62e76146104cc578063a9059cbb146104ea5761021c565b8063574445fb116101a857806376dfabb81161017757806376dfabb8146103e957806377c7b8fc14610408578063853828b6146104265780638da5cb5b1461043057806395d89b411461044e5761021c565b8063574445fb146103635780635b12ff9b1461039357806370a08231146103af578063715018a6146103df5761021c565b806323b872dd116101ef57806323b872dd146102ab5780632e1a7d4d146102db578063313ce567146102f7578063395093511461031557806348a0d754146103455761021c565b806306fdde0314610221578063095ea7b31461023f578063158ef93e1461026f57806318160ddd1461028d575b600080fd5b6102296106b2565b6040516102369190613636565b60405180910390f35b61025960048036038101906102549190613096565b610744565b6040516102669190613600565b60405180910390f35b610277610762565b6040516102849190613600565b60405180910390f35b610295610775565b6040516102a29190613938565b60405180910390f35b6102c560048036038101906102c09190613043565b61077f565b6040516102d29190613600565b60405180910390f35b6102f560048036038101906102f09190613103565b610877565b005b6102ff610bf0565b60405161030c9190613953565b60405180910390f35b61032f600480360381019061032a9190613096565b610bf9565b60405161033c9190613600565b60405180910390f35b61034d610ca5565b60405161035a9190613938565b60405180910390f35b61037d60048036038101906103789190612fd6565b610d57565b60405161038a9190613600565b60405180910390f35b6103ad60048036038101906103a89190612fd6565b610d77565b005b6103c960048036038101906103c49190612fd6565b610eae565b6040516103d69190613938565b60405180910390f35b6103e7610ef6565b005b6103f1610f7e565b6040516103ff9291906135a0565b60405180910390f35b610410610fb0565b60405161041d9190613938565b60405180910390f35b61042e61100f565b005b610438611022565b604051610445919061354e565b60405180910390f35b61045661104c565b6040516104639190613636565b60405180910390f35b61048660048036038101906104819190613096565b6110de565b6040516104939190613600565b60405180910390f35b6104b660048036038101906104b19190612fd6565b6111c9565b6040516104c39190613938565b60405180910390f35b6104d46111e1565b6040516104e1919061354e565b60405180910390f35b61050460048036038101906104ff9190613096565b611207565b6040516105119190613600565b60405180910390f35b610534600480360381019061052f9190612fd6565b611225565b6040516105419190613938565b60405180910390f35b61055261123d565b60405161055f9190613938565b60405180910390f35b610582600480360381019061057d9190613103565b6113a0565b005b61059e60048036038101906105999190612fd6565b611672565b6040516105ab9190613600565b60405180910390f35b6105bc6117f7565b6040516105c99190613600565b60405180910390f35b6105da61191c565b005b6105f660048036038101906105f19190613003565b611a1c565b6040516106039190613938565b60405180910390f35b610614611aa3565b005b610630600480360381019061062b9190612fd6565b611b58565b005b61063a611d21565b6040516106479190613938565b60405180910390f35b610658611d45565b005b610662612071565b60405161066f9190613938565b60405180910390f35b610692600480360381019061068d9190612fd6565b612077565b005b61069c61216f565b6040516106a9919061361b565b60405180910390f35b6060600380546106c190613b61565b80601f01602080910402602001604051908101604052809291908181526020018280546106ed90613b61565b801561073a5780601f1061070f5761010080835404028352916020019161073a565b820191906000526020600020905b81548152906001019060200180831161071d57829003601f168201915b5050505050905090565b6000610758610751612195565b848461219d565b6001905092915050565b600960149054906101000a900460ff1681565b6000600254905090565b600061078c848484612368565b6000600160008673ffffffffffffffffffffffffffffffffffffffff1673ffffffffffffffffffffffffffffffffffffffff16815260200190815260200160002060006107d7612195565b73ffffffffffffffffffffffffffffffffffffffff1673ffffffffffffffffffffffffffffffffffffffff16815260200190815260200160002054905082811015610857576040517f08c379a000000000000000000000000000000000000000000000000000000000815260040161084e90613798565b60405180910390fd5b61086b85610863612195565b85840361219d565b60019150509392505050565b600260065414156108bd576040517f08c379a00000000000000000000000000000000000000000000000000000000081526004016108b4906138b8565b60405180910390fd5b600260068190555060008111610908576040517f08c379a00000000000000000000000000000000000000000000000000000000081526004016108ff906136d8565b60405180910390fd5b600061093d610915610775565b61092f8461092161123d565b6125e990919063ffffffff16565b6125ff90919063ffffffff16565b90506109493383612615565b6000600b60009054906101000a900473ffffffffffffffffffffffffffffffffffffffff1673ffffffffffffffffffffffffffffffffffffffff166370a08231306040518263ffffffff1660e01b81526004016109a6919061354e565b60206040518083038186803b1580156109be57600080fd5b505afa1580156109d2573d6000803e3d6000fd5b505050506040513d601f19601f820116820180604052508101906109f69190613130565b905081811015610b8c576000610a1582846127ec90919063ffffffff16565b9050600960009054906101000a900473ffffffffffffffffffffffffffffffffffffffff1673ffffffffffffffffffffffffffffffffffffffff16632e1a7d4d826040518263ffffffff1660e01b8152600401610a729190613938565b600060405180830381600087803b158015610a8c57600080fd5b505af1158015610aa0573d6000803e3d6000fd5b505050506000600b60009054906101000a900473ffffffffffffffffffffffffffffffffffffffff1673ffffffffffffffffffffffffffffffffffffffff166370a08231306040518263ffffffff1660e01b8152600401610b01919061354e565b60206040518083038186803b158015610b1957600080fd5b505afa158015610b2d573d6000803e3d6000fd5b505050506040513d601f19601f82011682018060405250810190610b519190613130565b90506000610b6884836127ec90919063ffffffff16565b905082811015610b8857610b85818561280290919063ffffffff16565b94505b5050505b610bd93383600b60009054906101000a900473ffffffffffffffffffffffffffffffffffffffff1673ffffffffffffffffffffffffffffffffffffffff166128189092919063ffffffff16565b610be28261289e565b505050600160068190555050565b60006012905090565b6000610c9b610c06612195565b848460016000610c14612195565b73ffffffffffffffffffffffffffffffffffffffff1673ffffffffffffffffffffffffffffffffffffffff16815260200190815260200160002060008873ffffffffffffffffffffffffffffffffffffffff1673ffffffffffffffffffffffffffffffffffffffff16815260200190815260200160002054610c9691906139a0565b61219d565b6001905092915050565b6000600b60009054906101000a900473ffffffffffffffffffffffffffffffffffffffff1673ffffffffffffffffffffffffffffffffffffffff166370a08231306040518263ffffffff1660e01b8152600401610d02919061354e565b60206040518083038186803b158015610d1a57600080fd5b505afa158015610d2e573d6000803e3d6000fd5b505050506040513d601f19601f82011682018060405250810190610d529190613130565b905090565b600c6020528060005260406000206000915054906101000a900460ff1681565b610d7f612195565b73ffffffffffffffffffffffffffffffffffffffff16610d9d611022565b73ffffffffffffffffffffffffffffffffffffffff1614610df3576040517f08c379a0000000000000000000000000000000000000000000000000000000008152600401610dea906137b8565b60405180910390fd5b60405180604001604052808273ffffffffffffffffffffffffffffffffffffffff16815260200142815250600760008201518160000160006101000a81548173ffffffffffffffffffffffffffffffffffffffff021916908373ffffffffffffffffffffffffffffffffffffffff160217905550602082015181600101559050507f1aae2ec5647db56da2d513de40528ba3565c6057525637050660c4323bbac7df81604051610ea3919061354e565b60405180910390a150565b60008060008373ffffffffffffffffffffffffffffffffffffffff1673ffffffffffffffffffffffffffffffffffffffff168152602001908152602001600020549050919050565b610efe612195565b73ffffffffffffffffffffffffffffffffffffffff16610f1c611022565b73ffffffffffffffffffffffffffffffffffffffff1614610f72576040517f08c379a0000000000000000000000000000000000000000000000000000000008152600401610f69906137b8565b60405180910390fd5b610f7c600061297d565b565b60078060000160009054906101000a900473ffffffffffffffffffffffffffffffffffffffff16908060010154905082565b600080610fbb610775565b1461100057610ffb610fcb610775565b610fed670de0b6b3a7640000610fdf61123d565b6125e990919063ffffffff16565b6125ff90919063ffffffff16565b61100a565b670de0b6b3a76400005b905090565b61102061101b33610eae565b610877565b565b6000600560009054906101000a900473ffffffffffffffffffffffffffffffffffffffff16905090565b60606004805461105b90613b61565b80601f016020809104026020016040519081016040528092919081815260200182805461108790613b61565b80156110d45780601f106110a9576101008083540402835291602001916110d4565b820191906000526020600020905b8154815290600101906020018083116110b757829003601f168201915b5050505050905090565b600080600160006110ed612195565b73ffffffffffffffffffffffffffffffffffffffff1673ffffffffffffffffffffffffffffffffffffffff16815260200190815260200160002060008573ffffffffffffffffffffffffffffffffffffffff1673ffffffffffffffffffffffffffffffffffffffff168152602001908152602001600020549050828110156111aa576040517f08c379a00000000000000000000000000000000000000000000000000000000081526004016111a1906138f8565b60405180910390fd5b6111be6111b5612195565b8585840361219d565b600191505092915050565b600e6020528060005260406000206000915090505481565b600960009054906101000a900473ffffffffffffffffffffffffffffffffffffffff1681565b600061121b611214612195565b8484612368565b6001905092915050565b600d6020528060005260406000206000915090505481565b600061139b600960009054906101000a900473ffffffffffffffffffffffffffffffffffffffff1673ffffffffffffffffffffffffffffffffffffffff1663722713f76040518163ffffffff1660e01b815260040160206040518083038186803b1580156112aa57600080fd5b505afa1580156112be573d6000803e3d6000fd5b505050506040513d601f19601f820116820180604052508101906112e29190613130565b600b60009054906101000a900473ffffffffffffffffffffffffffffffffffffffff1673ffffffffffffffffffffffffffffffffffffffff166370a08231306040518263ffffffff1660e01b815260040161133d919061354e565b60206040518083038186803b15801561135557600080fd5b505afa158015611369573d6000803e3d6000fd5b505050506040513d601f19601f8201168201806040525081019061138d9190613130565b61280290919063ffffffff16565b905090565b600260065414156113e6576040517f08c379a00000000000000000000000000000000000000000000000000000000081526004016113dd906138b8565b60405180910390fd5b600260068190555060008111611431576040517f08c379a0000000000000000000000000000000000000000000000000000000008152600401611428906136d8565b60405180910390fd5b600061143b61123d565b90506000600b60009054906101000a900473ffffffffffffffffffffffffffffffffffffffff1673ffffffffffffffffffffffffffffffffffffffff166370a08231306040518263ffffffff1660e01b815260040161149a919061354e565b60206040518083038186803b1580156114b257600080fd5b505afa1580156114c6573d6000803e3d6000fd5b505050506040513d601f19601f820116820180604052508101906114ea9190613130565b905061153b333085600b60009054906101000a900473ffffffffffffffffffffffffffffffffffffffff1673ffffffffffffffffffffffffffffffffffffffff16612a43909392919063ffffffff16565b6000600b60009054906101000a900473ffffffffffffffffffffffffffffffffffffffff1673ffffffffffffffffffffffffffffffffffffffff166370a08231306040518263ffffffff1660e01b8152600401611598919061354e565b60206040518083038186803b1580156115b057600080fd5b505afa1580156115c4573d6000803e3d6000fd5b505050506040513d601f19601f820116820180604052508101906115e89190613130565b90506115fd82826127ec90919063ffffffff16565b935060008061160a610775565b141561161857849050611647565b61164484611636611627610775565b886125e990919063ffffffff16565b6125ff90919063ffffffff16565b90505b6116513382612acc565b61165961191c565b61166285612c2c565b5050505050600160068190555050565b600061167c612195565b73ffffffffffffffffffffffffffffffffffffffff1661169a611022565b73ffffffffffffffffffffffffffffffffffffffff16146116f0576040517f08c379a00000000000000000000000000000000000000000000000000000000081526004016116e7906137b8565b60405180910390fd5b600960149054906101000a900460ff1615611740576040517f08c379a000000000000000000000000000000000000000000000000000000000815260040161173790613778565b60405180910390fd5b6104b0600a5461175091906139a0565b421115611792576040517f08c379a0000000000000000000000000000000000000000000000000000000008152600401611789906137d8565b60405180910390fd5b81600960006101000a81548173ffffffffffffffffffffffffffffffffffffffff021916908373ffffffffffffffffffffffffffffffffffffffff1602179055506001600960146101000a81548160ff02191690831515021790555060019050919050565b6000600c60003373ffffffffffffffffffffffffffffffffffffffff1673ffffffffffffffffffffffffffffffffffffffff16815260200190815260200160002060009054906101000a900460ff1615611886576040517f08c379a000000000000000000000000000000000000000000000000000000000815260040161187d906138d8565b60405180910390fd5b6001600c60003373ffffffffffffffffffffffffffffffffffffffff1673ffffffffffffffffffffffffffffffffffffffff16815260200190815260200160002060006101000a81548160ff0219169083151502179055507fac268f7e07e832bf2aedd9f3ffd031ceb7a2b2553a288d8f509a34ee51f6b01f3360405161190d919061354e565b60405180910390a16001905090565b6000611926610ca5565b9050611997600960009054906101000a900473ffffffffffffffffffffffffffffffffffffffff1682600b60009054906101000a900473ffffffffffffffffffffffffffffffffffffffff1673ffffffffffffffffffffffffffffffffffffffff166128189092919063ffffffff16565b600960009054906101000a900473ffffffffffffffffffffffffffffffffffffffff1673ffffffffffffffffffffffffffffffffffffffff1663d0e30db06040518163ffffffff1660e01b8152600401600060405180830381600087803b158015611a0157600080fd5b505af1158015611a15573d6000803e3d6000fd5b5050505050565b6000600160008473ffffffffffffffffffffffffffffffffffffffff1673ffffffffffffffffffffffffffffffffffffffff16815260200190815260200160002060008373ffffffffffffffffffffffffffffffffffffffff1673ffffffffffffffffffffffffffffffffffffffff16815260200190815260200160002054905092915050565b611b56600b60009054906101000a900473ffffffffffffffffffffffffffffffffffffffff1673ffffffffffffffffffffffffffffffffffffffff166370a08231336040518263ffffffff1660e01b8152600401611b01919061354e565b60206040518083038186803b158015611b1957600080fd5b505afa158015611b2d573d6000803e3d6000fd5b505050506040513d601f19601f82011682018060405250810190611b519190613130565b6113a0565b565b611b60612195565b73ffffffffffffffffffffffffffffffffffffffff16611b7e611022565b73ffffffffffffffffffffffffffffffffffffffff1614611bd4576040517f08c379a0000000000000000000000000000000000000000000000000000000008152600401611bcb906137b8565b60405180910390fd5b600b60009054906101000a900473ffffffffffffffffffffffffffffffffffffffff1673ffffffffffffffffffffffffffffffffffffffff168173ffffffffffffffffffffffffffffffffffffffff161415611c65576040517f08c379a0000000000000000000000000000000000000000000000000000000008152600401611c5c90613758565b60405180910390fd5b60008173ffffffffffffffffffffffffffffffffffffffff166370a08231306040518263ffffffff1660e01b8152600401611ca0919061354e565b60206040518083038186803b158015611cb857600080fd5b505afa158015611ccc573d6000803e3d6000fd5b505050506040513d601f19601f82011682018060405250810190611cf09190613130565b9050611d1d33828473ffffffffffffffffffffffffffffffffffffffff166128189092919063ffffffff16565b5050565b7f000000000000000000000000000000000000000000000000000000000000000081565b611d4d612195565b73ffffffffffffffffffffffffffffffffffffffff16611d6b611022565b73ffffffffffffffffffffffffffffffffffffffff1614611dc1576040517f08c379a0000000000000000000000000000000000000000000000000000000008152600401611db8906137b8565b60405180910390fd5b600073ffffffffffffffffffffffffffffffffffffffff16600760000160009054906101000a900473ffffffffffffffffffffffffffffffffffffffff1673ffffffffffffffffffffffffffffffffffffffff161415611e56576040517f08c379a0000000000000000000000000000000000000000000000000000000008152600401611e4d90613838565b60405180910390fd5b42611e8f7f000000000000000000000000000000000000000000000000000000000000000060076001015461280290919063ffffffff16565b10611ecf576040517f08c379a0000000000000000000000000000000000000000000000000000000008152600401611ec690613738565b60405180910390fd5b7f7f37d440e85aba7fbf641c4bda5ca4ef669a80bffaacde2aa8d9feb1b048c82c600760000160009054906101000a900473ffffffffffffffffffffffffffffffffffffffff16604051611f23919061354e565b60405180910390a1600960009054906101000a900473ffffffffffffffffffffffffffffffffffffffff1673ffffffffffffffffffffffffffffffffffffffff1663fb6177876040518163ffffffff1660e01b8152600401600060405180830381600087803b158015611f9557600080fd5b505af1158015611fa9573d6000803e3d6000fd5b50505050600760000160009054906101000a900473ffffffffffffffffffffffffffffffffffffffff16600960006101000a81548173ffffffffffffffffffffffffffffffffffffffff021916908373ffffffffffffffffffffffffffffffffffffffff1602179055506000600760000160006101000a81548173ffffffffffffffffffffffffffffffffffffffff021916908373ffffffffffffffffffffffffffffffffffffffff16021790555064012a05f20060076001018190555061206f61191c565b565b600a5481565b61207f612195565b73ffffffffffffffffffffffffffffffffffffffff1661209d611022565b73ffffffffffffffffffffffffffffffffffffffff16146120f3576040517f08c379a00000000000000000000000000000000000000000000000000000000081526004016120ea906137b8565b60405180910390fd5b600073ffffffffffffffffffffffffffffffffffffffff168173ffffffffffffffffffffffffffffffffffffffff161415612163576040517f08c379a000000000000000000000000000000000000000000000000000000000815260040161215a90613698565b60405180910390fd5b61216c8161297d565b50565b600b60009054906101000a900473ffffffffffffffffffffffffffffffffffffffff1681565b600033905090565b600073ffffffffffffffffffffffffffffffffffffffff168373ffffffffffffffffffffffffffffffffffffffff16141561220d576040517f08c379a000000000000000000000000000000000000000000000000000000000815260040161220490613858565b60405180910390fd5b600073ffffffffffffffffffffffffffffffffffffffff168273ffffffffffffffffffffffffffffffffffffffff16141561227d576040517f08c379a0000000000000000000000000000000000000000000000000000000008152600401612274906136b8565b60405180910390fd5b80600160008573ffffffffffffffffffffffffffffffffffffffff1673ffffffffffffffffffffffffffffffffffffffff16815260200190815260200160002060008473ffffffffffffffffffffffffffffffffffffffff1673ffffffffffffffffffffffffffffffffffffffff168152602001908152602001600020819055508173ffffffffffffffffffffffffffffffffffffffff168373ffffffffffffffffffffffffffffffffffffffff167f8c5be1e5ebec7d5bd14f71427d1e84f3dd0314c0f7b2291e5b200ac8c7c3b9258360405161235b9190613938565b60405180910390a3505050565b600073ffffffffffffffffffffffffffffffffffffffff168373ffffffffffffffffffffffffffffffffffffffff1614156123d8576040517f08c379a00000000000000000000000000000000000000000000000000000000081526004016123cf90613818565b60405180910390fd5b600073ffffffffffffffffffffffffffffffffffffffff168273ffffffffffffffffffffffffffffffffffffffff161415612448576040517f08c379a000000000000000000000000000000000000000000000000000000000815260040161243f90613658565b60405180910390fd5b612453838383612d0b565b60008060008573ffffffffffffffffffffffffffffffffffffffff1673ffffffffffffffffffffffffffffffffffffffff168152602001908152602001600020549050818110156124d9576040517f08c379a00000000000000000000000000000000000000000000000000000000081526004016124d0906136f8565b60405180910390fd5b8181036000808673ffffffffffffffffffffffffffffffffffffffff1673ffffffffffffffffffffffffffffffffffffffff16815260200190815260200160002081905550816000808573ffffffffffffffffffffffffffffffffffffffff1673ffffffffffffffffffffffffffffffffffffffff168152602001908152602001600020600082825461256c91906139a0565b925050819055508273ffffffffffffffffffffffffffffffffffffffff168473ffffffffffffffffffffffffffffffffffffffff167fddf252ad1be2c89b69c2b068fc378daa952ba7f163c4a11628f55a4df523b3ef846040516125d09190613938565b60405180910390a36125e3848484612d10565b50505050565b600081836125f79190613a27565b905092915050565b6000818361260d91906139f6565b905092915050565b600073ffffffffffffffffffffffffffffffffffffffff168273ffffffffffffffffffffffffffffffffffffffff161415612685576040517f08c379a000000000000000000000000000000000000000000000000000000000815260040161267c906137f8565b60405180910390fd5b61269182600083612d0b565b60008060008473ffffffffffffffffffffffffffffffffffffffff1673ffffffffffffffffffffffffffffffffffffffff16815260200190815260200160002054905081811015612717576040517f08c379a000000000000000000000000000000000000000000000000000000000815260040161270e90613678565b60405180910390fd5b8181036000808573ffffffffffffffffffffffffffffffffffffffff1673ffffffffffffffffffffffffffffffffffffffff16815260200190815260200160002081905550816002600082825461276e9190613a81565b92505081905550600073ffffffffffffffffffffffffffffffffffffffff168373ffffffffffffffffffffffffffffffffffffffff167fddf252ad1be2c89b69c2b068fc378daa952ba7f163c4a11628f55a4df523b3ef846040516127d39190613938565b60405180910390a36127e783600084612d10565b505050565b600081836127fa9190613a81565b905092915050565b6000818361281091906139a0565b905092915050565b6128998363a9059cbb60e01b84846040516024016128379291906135a0565b604051602081830303815290604052907bffffffffffffffffffffffffffffffffffffffffffffffffffffffff19166020820180517bffffffffffffffffffffffffffffffffffffffffffffffffffffffff8381831617835250505050612d15565b505050565b600080600e60003373ffffffffffffffffffffffffffffffffffffffff1673ffffffffffffffffffffffffffffffffffffffff168152602001908152602001600020549050600083826128f191906139a0565b905080600e60003373ffffffffffffffffffffffffffffffffffffffff1673ffffffffffffffffffffffffffffffffffffffff168152602001908152602001600020819055507f9141e77ca2893646d48087b1b095075541605e9b87ca091e2057b651b1e62af233858360405161296a939291906135c9565b60405180910390a1600192505050919050565b6000600560009054906101000a900473ffffffffffffffffffffffffffffffffffffffff16905081600560006101000a81548173ffffffffffffffffffffffffffffffffffffffff021916908373ffffffffffffffffffffffffffffffffffffffff1602179055508173ffffffffffffffffffffffffffffffffffffffff168173ffffffffffffffffffffffffffffffffffffffff167f8be0079c531659141344cd1fd0a4f28419497f9722a3daafe3b4186f6b6457e060405160405180910390a35050565b612ac6846323b872dd60e01b858585604051602401612a6493929190613569565b604051602081830303815290604052907bffffffffffffffffffffffffffffffffffffffffffffffffffffffff19166020820180517bffffffffffffffffffffffffffffffffffffffffffffffffffffffff8381831617835250505050612d15565b50505050565b600073ffffffffffffffffffffffffffffffffffffffff168273ffffffffffffffffffffffffffffffffffffffff161415612b3c576040517f08c379a0000000000000000000000000000000000000000000000000000000008152600401612b3390613918565b60405180910390fd5b612b4860008383612d0b565b8060026000828254612b5a91906139a0565b92505081905550806000808473ffffffffffffffffffffffffffffffffffffffff1673ffffffffffffffffffffffffffffffffffffffff1681526020019081526020016000206000828254612baf91906139a0565b925050819055508173ffffffffffffffffffffffffffffffffffffffff16600073ffffffffffffffffffffffffffffffffffffffff167fddf252ad1be2c89b69c2b068fc378daa952ba7f163c4a11628f55a4df523b3ef83604051612c149190613938565b60405180910390a3612c2860008383612d10565b5050565b600080600d60003373ffffffffffffffffffffffffffffffffffffffff1673ffffffffffffffffffffffffffffffffffffffff16815260200190815260200160002054905060008382612c7f91906139a0565b905080600d60003373ffffffffffffffffffffffffffffffffffffffff1673ffffffffffffffffffffffffffffffffffffffff168152602001908152602001600020819055507f06a0895c1a837cd12ac50bcba0b79f680b66b790598e25e296d9e998e1b75209338583604051612cf8939291906135c9565b60405180910390a1600192505050919050565b505050565b505050565b6000612d77826040518060400160405280602081526020017f5361666545524332303a206c6f772d6c6576656c2063616c6c206661696c65648152508573ffffffffffffffffffffffffffffffffffffffff16612ddc9092919063ffffffff16565b9050600081511115612dd75780806020019051810190612d9791906130d6565b612dd6576040517f08c379a0000000000000000000000000000000000000000000000000000000008152600401612dcd90613898565b60405180910390fd5b5b505050565b6060612deb8484600085612df4565b90509392505050565b606082471015612e39576040517f08c379a0000000000000000000000000000000000000000000000000000000008152600401612e3090613718565b60405180910390fd5b612e4285612f08565b612e81576040517f08c379a0000000000000000000000000000000000000000000000000000000008152600401612e7890613878565b60405180910390fd5b6000808673ffffffffffffffffffffffffffffffffffffffff168587604051612eaa9190613537565b60006040518083038185875af1925050503d8060008114612ee7576040519150601f19603f3d011682016040523d82523d6000602084013e612eec565b606091505b5091509150612efc828286612f1b565b92505050949350505050565b600080823b905060008111915050919050565b60608315612f2b57829050612f7b565b600083511115612f3e5782518084602001fd5b816040517f08c379a0000000000000000000000000000000000000000000000000000000008152600401612f729190613636565b60405180910390fd5b9392505050565b600081359050612f91816141f9565b92915050565b600081519050612fa681614210565b92915050565b600081359050612fbb81614227565b92915050565b600081519050612fd081614227565b92915050565b600060208284031215612fec57612feb613c20565b5b6000612ffa84828501612f82565b91505092915050565b6000806040838503121561301a57613019613c20565b5b600061302885828601612f82565b925050602061303985828601612f82565b9150509250929050565b60008060006060848603121561305c5761305b613c20565b5b600061306a86828701612f82565b935050602061307b86828701612f82565b925050604061308c86828701612fac565b9150509250925092565b600080604083850312156130ad576130ac613c20565b5b60006130bb85828601612f82565b92505060206130cc85828601612fac565b9150509250929050565b6000602082840312156130ec576130eb613c20565b5b60006130fa84828501612f97565b91505092915050565b60006020828403121561311957613118613c20565b5b600061312784828501612fac565b91505092915050565b60006020828403121561314657613145613c20565b5b600061315484828501612fc1565b91505092915050565b61316681613ab5565b82525050565b61317581613ac7565b82525050565b60006131868261396e565b6131908185613984565b93506131a0818560208601613b2e565b80840191505092915050565b6131b581613b0a565b82525050565b60006131c682613979565b6131d0818561398f565b93506131e0818560208601613b2e565b6131e981613c25565b840191505092915050565b600061320160238361398f565b915061320c82613c36565b604082019050919050565b600061322460228361398f565b915061322f82613c85565b604082019050919050565b600061324760268361398f565b915061325282613cd4565b604082019050919050565b600061326a60228361398f565b915061327582613d23565b604082019050919050565b600061328d60158361398f565b915061329882613d72565b602082019050919050565b60006132b060268361398f565b91506132bb82613d9b565b604082019050919050565b60006132d360268361398f565b91506132de82613dea565b604082019050919050565b60006132f660148361398f565b915061330182613e39565b602082019050919050565b600061331960068361398f565b915061332482613e62565b602082019050919050565b600061333c60208361398f565b915061334782613e8b565b602082019050919050565b600061335f60288361398f565b915061336a82613eb4565b604082019050919050565b600061338260208361398f565b915061338d82613f03565b602082019050919050565b60006133a560288361398f565b91506133b082613f2c565b604082019050919050565b60006133c860218361398f565b91506133d382613f7b565b604082019050919050565b60006133eb60258361398f565b91506133f682613fca565b604082019050919050565b600061340e60158361398f565b915061341982614019565b602082019050919050565b600061343160248361398f565b915061343c82614042565b604082019050919050565b6000613454601d8361398f565b915061345f82614091565b602082019050919050565b6000613477602a8361398f565b9150613482826140ba565b604082019050919050565b600061349a601f8361398f565b91506134a582614109565b602082019050919050565b60006134bd60238361398f565b91506134c882614132565b604082019050919050565b60006134e060258361398f565b91506134eb82614181565b604082019050919050565b6000613503601f8361398f565b915061350e826141d0565b602082019050919050565b61352281613af3565b82525050565b61353181613afd565b82525050565b6000613543828461317b565b915081905092915050565b6000602082019050613563600083018461315d565b92915050565b600060608201905061357e600083018661315d565b61358b602083018561315d565b6135986040830184613519565b949350505050565b60006040820190506135b5600083018561315d565b6135c26020830184613519565b9392505050565b60006060820190506135de600083018661315d565b6135eb6020830185613519565b6135f86040830184613519565b949350505050565b6000602082019050613615600083018461316c565b92915050565b600060208201905061363060008301846131ac565b92915050565b6000602082019050818103600083015261365081846131bb565b905092915050565b60006020820190508181036000830152613671816131f4565b9050919050565b6000602082019050818103600083015261369181613217565b9050919050565b600060208201905081810360008301526136b18161323a565b9050919050565b600060208201905081810360008301526136d18161325d565b9050919050565b600060208201905081810360008301526136f181613280565b9050919050565b60006020820190508181036000830152613711816132a3565b9050919050565b60006020820190508181036000830152613731816132c6565b9050919050565b60006020820190508181036000830152613751816132e9565b9050919050565b600060208201905081810360008301526137718161330c565b9050919050565b600060208201905081810360008301526137918161332f565b9050919050565b600060208201905081810360008301526137b181613352565b9050919050565b600060208201905081810360008301526137d181613375565b9050919050565b600060208201905081810360008301526137f181613398565b9050919050565b60006020820190508181036000830152613811816133bb565b9050919050565b60006020820190508181036000830152613831816133de565b9050919050565b6000602082019050818103600083015261385181613401565b9050919050565b6000602082019050818103600083015261387181613424565b9050919050565b6000602082019050818103600083015261389181613447565b9050919050565b600060208201905081810360008301526138b18161346a565b9050919050565b600060208201905081810360008301526138d18161348d565b9050919050565b600060208201905081810360008301526138f1816134b0565b9050919050565b60006020820190508181036000830152613911816134d3565b9050919050565b60006020820190508181036000830152613931816134f6565b9050919050565b600060208201905061394d6000830184613519565b92915050565b60006020820190506139686000830184613528565b92915050565b600081519050919050565b600081519050919050565b600081905092915050565b600082825260208201905092915050565b60006139ab82613af3565b91506139b683613af3565b9250827fffffffffffffffffffffffffffffffffffffffffffffffffffffffffffffffff038211156139eb576139ea613b93565b5b828201905092915050565b6000613a0182613af3565b9150613a0c83613af3565b925082613a1c57613a1b613bc2565b5b828204905092915050565b6000613a3282613af3565b9150613a3d83613af3565b9250817fffffffffffffffffffffffffffffffffffffffffffffffffffffffffffffffff0483118215151615613a7657613a75613b93565b5b828202905092915050565b6000613a8c82613af3565b9150613a9783613af3565b925082821015613aaa57613aa9613b93565b5b828203905092915050565b6000613ac082613ad3565b9050919050565b60008115159050919050565b600073ffffffffffffffffffffffffffffffffffffffff82169050919050565b6000819050919050565b600060ff82169050919050565b6000613b1582613b1c565b9050919050565b6000613b2782613ad3565b9050919050565b60005b83811015613b4c578082015181840152602081019050613b31565b83811115613b5b576000848401525b50505050565b60006002820490506001821680613b7957607f821691505b60208210811415613b8d57613b8c613bf1565b5b50919050565b7f4e487b7100000000000000000000000000000000000000000000000000000000600052601160045260246000fd5b7f4e487b7100000000000000000000000000000000000000000000000000000000600052601260045260246000fd5b7f4e487b7100000000000000000000000000000000000000000000000000000000600052602260045260246000fd5b600080fd5b6000601f19601f8301169050919050565b7f45524332303a207472616e7366657220746f20746865207a65726f206164647260008201527f6573730000000000000000000000000000000000000000000000000000000000602082015250565b7f45524332303a206275726e20616d6f756e7420657863656564732062616c616e60008201527f6365000000000000000000000000000000000000000000000000000000000000602082015250565b7f4f776e61626c653a206e6577206f776e657220697320746865207a65726f206160008201527f6464726573730000000000000000000000000000000000000000000000000000602082015250565b7f45524332303a20617070726f766520746f20746865207a65726f20616464726560008201527f7373000000000000000000000000000000000000000000000000000000000000602082015250565b7f706c656173652070726f7669646520616d6f756e740000000000000000000000600082015250565b7f45524332303a207472616e7366657220616d6f756e742065786365656473206260008201527f616c616e63650000000000000000000000000000000000000000000000000000602082015250565b7f416464726573733a20696e73756666696369656e742062616c616e636520666f60008201527f722063616c6c0000000000000000000000000000000000000000000000000000602082015250565b7f44656c617920686173206e6f7420706173736564000000000000000000000000600082015250565b7f21746f6b656e0000000000000000000000000000000000000000000000000000600082015250565b7f436f6e747261637420697320616c726561647920696e697469616c697a65642e600082015250565b7f45524332303a207472616e7366657220616d6f756e742065786365656473206160008201527f6c6c6f77616e6365000000000000000000000000000000000000000000000000602082015250565b7f4f776e61626c653a2063616c6c6572206973206e6f7420746865206f776e6572600082015250565b7f696e697469616c697a6174696f6e20706572696f64206f7665722c207573652060008201527f74696d656c6f636b000000000000000000000000000000000000000000000000602082015250565b7f45524332303a206275726e2066726f6d20746865207a65726f2061646472657360008201527f7300000000000000000000000000000000000000000000000000000000000000602082015250565b7f45524332303a207472616e736665722066726f6d20746865207a65726f20616460008201527f6472657373000000000000000000000000000000000000000000000000000000602082015250565b7f5468657265206973206e6f2063616e6469646174650000000000000000000000600082015250565b7f45524332303a20617070726f76652066726f6d20746865207a65726f2061646460008201527f7265737300000000000000000000000000000000000000000000000000000000602082015250565b7f416464726573733a2063616c6c20746f206e6f6e2d636f6e7472616374000000600082015250565b7f5361666545524332303a204552433230206f7065726174696f6e20646964206e60008201527f6f74207375636365656400000000000000000000000000000000000000000000602082015250565b7f5265656e7472616e637947756172643a207265656e7472616e742063616c6c00600082015250565b7f796f75206861766520616c72656164792061636365707465642074686520746560008201527f726d730000000000000000000000000000000000000000000000000000000000602082015250565b7f45524332303a2064656372656173656420616c6c6f77616e63652062656c6f7760008201527f207a65726f000000000000000000000000000000000000000000000000000000602082015250565b7f45524332303a206d696e7420746f20746865207a65726f206164647265737300600082015250565b61420281613ab5565b811461420d57600080fd5b50565b61421981613ac7565b811461422457600080fd5b50565b61423081613af3565b811461423b57600080fd5b5056fea2646970667358221220804a5e92c5e4b6e565ce8d363712861495fe524a5538e0d7e9fa868a55ddcdf364736f6c63430008060033",
  "immutableReferences": {
    "939": [
      {
        "length": 32,
        "start": 7459
      },
      {
        "length": 32,
        "start": 7772
      }
    ]
  },
  "source": "// SPDX-License-Identifier: MIT\n\npragma solidity 0.8.6;\n\nimport \"@openzeppelin/contracts/token/ERC20/IERC20.sol\";\nimport \"@openzeppelin/contracts/token/ERC20/ERC20.sol\";\nimport \"@openzeppelin/contracts/token/ERC20/utils/SafeERC20.sol\";\nimport \"@openzeppelin/contracts/utils/Context.sol\";\nimport \"@openzeppelin/contracts/utils/math/SafeMath.sol\";\nimport \"@openzeppelin/contracts/access/Ownable.sol\";\nimport \"@openzeppelin/contracts/security/ReentrancyGuard.sol\";\n\nimport \"./interfaces/IStrategy.sol\";\n\n/**\n * @dev Implementation of a vault to deposit funds for yield optimizing.\n * This is the contract that receives funds and that users interface with.\n * The yield optimizing strategy itself is implemented in a separate 'Strategy.sol' contract.\n */\ncontract Vault is ERC20, Ownable, ReentrancyGuard {\n    using SafeERC20 for IERC20;\n    using SafeMath for uint256;\n\n    struct StratCandidate {\n        address implementation;\n        uint proposedTime;\n    }\n\n    // The last proposed strategy to switch to.\n    StratCandidate public stratCandidate;\n    // The strategy currently in use by the vault.\n    address public strategy;\n\n    /**\n    * @dev The stretegy's initialization status. Gives deployer 20 minutes after contract\n    * construction (constructionTime) to set the strategy implementation.\n    */\n    bool public initialized = false;\n    uint public constructionTime;\n\n    // The token the vault accepts and looks to maximize.\n    IERC20 public token;\n    // The minimum time it has to pass before a strat candidate can be approved.\n    uint256 public immutable approvalDelay;\n\n    /**\n     * + WEBSITE DISCLAIMER +\n     * While we have taken precautionary measures to protect our users,\n     * it is imperative that you read, understand and agree to the disclaimer below:\n     *\n     * Using our platform may involve financial risk of loss.\n     * Never invest more than what you can afford to lose.\n     * Never invest in a Reaper Vault with tokens you don't trust.\n     * Never invest in a Reaper Vault with tokens whose rules for minting you dont agree with.\n     * Ensure the accuracy of the contracts for the tokens in the Reaper Vault.\n     * Ensure the accuracy of the contracts for the Reaper Vault and Strategy you are depositing in.\n     * Check our documentation regularly for additional disclaimers and security assessments.\n     * ...and of course: DO YOUR OWN RESEARCH!!!\n     *\n     * By accepting these terms, you agree that Byte Masons, Fantom.Farm, or any parties\n     * affiliated with the deployment and management of these vaults or their attached strategies\n     * are not liable for any financial losses you might incur as a direct or indirect\n     * result of investing in any of the pools on the platform.\n     */\n    mapping (address => bool) public hasReadAndAcceptedTerms;\n\n    /**\n     * @dev simple mappings used to determine PnL denominated in LP tokens,\n     * as well as keep a generalized history of a user's protocol usage.\n     */\n    mapping (address => uint) public cumulativeDeposits;\n    mapping (address => uint) public cumulativeWithdrawals;\n\n    event NewStratCandidate(address implementation);\n    event UpgradeStrat(address implementation);\n    event TermsAccepted(address user);\n\n    event DepositsIncremented(address user, uint amount, uint total);\n    event WithdrawalsIncremented(address user, uint amount, uint total);\n\n    /**\n     * @dev Sets the value of {token} to the token that the vault will\n     * hold as underlying value. It initializes the vault's own 'moo' token.\n     * This token is minted when someone does a deposit. It is burned in order\n     * to withdraw the corresponding portion of the underlying assets.\n     * @param _token the token to maximize.\n     * @param _name the name of the vault token.\n     * @param _symbol the symbol of the vault token.\n     * @param _approvalDelay the delay before a new strat can be approved.\n     */\n    constructor(\n        address _token,\n        string memory _name,\n        string memory _symbol,\n        uint256 _approvalDelay\n    ) ERC20(\n        string(_name),\n        string(_symbol)\n    ) {\n        token = IERC20(_token);\n        approvalDelay = _approvalDelay;\n        constructionTime = block.timestamp;\n    }\n\n    /**\n     * @dev Connects the vault to its initial strategy. One use only.\n     * @notice deployer has only 20 minutes after construction to connect the initial strategy.\n     * @param _strategy the vault's initial strategy\n     */\n\n    function initialize(address _strategy) public onlyOwner returns (bool) {\n        require(!initialized, \"Contract is already initialized.\");\n        require(block.timestamp <= (constructionTime + 1200), \"initialization period over, use timelock\");\n        strategy = _strategy;\n        initialized = true;\n        return true;\n    }\n\n    /**\n     * @dev Gives user access to the client\n     * @notice this does not affect vault permissions, and is read from client-side\n     */\n\n    function agreeToTerms() public returns (bool) {\n        require(!hasReadAndAcceptedTerms[msg.sender], \"you have already accepted the terms\");\n        hasReadAndAcceptedTerms[msg.sender] = true;\n        emit TermsAccepted(msg.sender);\n        return true;\n    }\n\n    /**\n     * @dev It calculates the total underlying value of {token} held by the system.\n     * It takes into account the vault contract balance, the strategy contract balance\n     *  and the balance deployed in other contracts as part of the strategy.\n     */\n    function balance() public view returns (uint) {\n        return token.balanceOf(address(this)).add(IStrategy(strategy).balanceOf());\n    }\n\n    /**\n     * @dev Custom logic in here for how much the vault allows to be borrowed.\n     * We return 100% of tokens for now. Under certain conditions we might\n     * want to keep some of the system funds at hand in the vault, instead\n     * of putting them to work.\n     */\n    function available() public view returns (uint256) {\n        return token.balanceOf(address(this));\n    }\n\n    /**\n     * @dev Function for various UIs to display the current value of one of our yield tokens.\n     * Returns an uint256 with 18 decimals of how much underlying asset one vault share represents.\n     */\n    function getPricePerFullShare() public view returns (uint256) {\n        return totalSupply() == 0 ? 1e18 : balance().mul(1e18).div(totalSupply());\n    }\n\n    /**\n     * @dev A helper function to call deposit() with all the sender's funds.\n     */\n    function depositAll() external {\n        deposit(token.balanceOf(msg.sender));\n    }\n\n    /**\n     * @dev The entrypoint of funds into the system. People deposit with this function\n     * into the vault. The vault is then in charge of sending funds into the strategy.\n     * @notice the _before and _after variables are used to account properly for\n     * 'burn-on-transaction' tokens.\n     * @notice to ensure 'owner' can't sneak an implementation past the timelock,\n     * it's set to true\n     */\n    function deposit(uint _amount) public nonReentrant {\n        require(_amount > 0, \"please provide amount\");\n        uint256 _pool = balance();\n        uint256 _before = token.balanceOf(address(this));\n        token.safeTransferFrom(msg.sender, address(this), _amount);\n        uint256 _after = token.balanceOf(address(this));\n        _amount = _after.sub(_before);\n        uint256 shares = 0;\n        if (totalSupply() == 0) {\n            shares = _amount;\n        } else {\n            shares = (_amount.mul(totalSupply())).div(_pool);\n        }\n        _mint(msg.sender, shares);\n        earn();\n        incrementDeposits(_amount);\n    }\n\n    /**\n     * @dev Function to send funds into the strategy and put them to work. It's primarily called\n     * by the vault's deposit() function.\n     */\n    function earn() public {\n        uint _bal = available();\n        token.safeTransfer(strategy, _bal);\n        IStrategy(strategy).deposit();\n    }\n\n    /**\n     * @dev A helper function to call withdraw() with all the sender's funds.\n     */\n    function withdrawAll() external {\n        withdraw(balanceOf(msg.sender));\n    }\n\n    /**\n     * @dev Function to exit the system. The vault will withdraw the required tokens\n     * from the strategy and pay up the token holder. A proportional number of IOU\n     * tokens are burned in the process.\n     */\n    function withdraw(uint256 _shares) public nonReentrant {\n      require(_shares > 0, \"please provide amount\");\n        uint256 r = (balance().mul(_shares)).div(totalSupply());\n        _burn(msg.sender, _shares);\n\n        uint b = token.balanceOf(address(this));\n        if (b < r) {\n            uint _withdraw = r.sub(b);\n            IStrategy(strategy).withdraw(_withdraw);\n            uint _after = token.balanceOf(address(this));\n            uint _diff = _after.sub(b);\n            if (_diff < _withdraw) {\n                r = b.add(_diff);\n            }\n        }\n        token.safeTransfer(msg.sender, r);\n        incrementWithdrawals(r);\n    }\n\n    /**\n     * @dev Sets the candidate for the new strat to use with this vault.\n     * @param _implementation The address of the candidate strategy.\n     */\n    function proposeStrat(address _implementation) public onlyOwner {\n        stratCandidate = StratCandidate({\n            implementation: _implementation,\n            proposedTime: block.timestamp\n         });\n        emit NewStratCandidate(_implementation);\n    }\n\n    /**\n     * @dev It switches the active strat for the strat candidate. After upgrading, the\n     * candidate implementation is set to the 0x00 address, and proposedTime to a time\n     * happening in +100 years for safety.\n     */\n\n    function upgradeStrat() public onlyOwner {\n        require(stratCandidate.implementation != address(0), \"There is no candidate\");\n        require(stratCandidate.proposedTime.add(approvalDelay) < block.timestamp, \"Delay has not passed\");\n\n        emit UpgradeStrat(stratCandidate.implementation);\n\n        IStrategy(strategy).retireStrat();\n        strategy = stratCandidate.implementation;\n        stratCandidate.implementation = address(0);\n        stratCandidate.proposedTime = 5000000000;\n\n        earn();\n    }\n\n    /*\n    * @dev functions to increase user's cumulative deposits and withdrawals\n    * @param _amount number of LP tokens being deposited/withdrawn\n    */\n\n    function incrementDeposits(uint _amount) internal returns (bool) {\n      uint initial = cumulativeDeposits[msg.sender];\n      uint newTotal = initial + _amount;\n      cumulativeDeposits[msg.sender] = newTotal;\n      emit DepositsIncremented(msg.sender, _amount, newTotal);\n      return true;\n    }\n\n    function incrementWithdrawals(uint _amount) internal returns (bool) {\n      uint initial = cumulativeWithdrawals[msg.sender];\n      uint newTotal = initial + _amount;\n      cumulativeWithdrawals[msg.sender] = newTotal;\n      emit WithdrawalsIncremented(msg.sender, _amount, newTotal);\n      return true;\n    }\n\n    /**\n     * @dev Rescues random funds stuck that the strat can't handle.\n     * @param _token address of the token to rescue.\n     */\n    function inCaseTokensGetStuck(address _token) external onlyOwner {\n        require(_token != address(token), \"!token\");\n\n        uint256 amount = IERC20(_token).balanceOf(address(this));\n        IERC20(_token).safeTransfer(msg.sender, amount);\n    }\n}",
  "sourcePath": "/Users/phucld/Projects/blockchain/strategy-portal/contracts/Vault.sol",
  "compiler": {
    "name": "solc",
    "version": "0.8.6+commit.11564f7e.Emscripten.clang"
  },
  "schemaVersion": "3.4.1",
  "updatedAt": "2021-08-01T14:18:04.663Z",
  "networkType": "ethereum",
  "devdoc": {
    "details": "Implementation of a vault to deposit funds for yield optimizing. This is the contract that receives funds and that users interface with. The yield optimizing strategy itself is implemented in a separate 'Strategy.sol' contract.",
    "kind": "dev",
    "methods": {
      "agreeToTerms()": {
        "details": "Gives user access to the client"
      },
      "allowance(address,address)": {
        "details": "See {IERC20-allowance}."
      },
      "approve(address,uint256)": {
        "details": "See {IERC20-approve}. Requirements: - `spender` cannot be the zero address."
      },
      "available()": {
        "details": "Custom logic in here for how much the vault allows to be borrowed. We return 100% of tokens for now. Under certain conditions we might want to keep some of the system funds at hand in the vault, instead of putting them to work."
      },
      "balance()": {
        "details": "It calculates the total underlying value of {token} held by the system. It takes into account the vault contract balance, the strategy contract balance  and the balance deployed in other contracts as part of the strategy."
      },
      "balanceOf(address)": {
        "details": "See {IERC20-balanceOf}."
      },
      "constructor": {
        "details": "Sets the value of {token} to the token that the vault will hold as underlying value. It initializes the vault's own 'moo' token. This token is minted when someone does a deposit. It is burned in order to withdraw the corresponding portion of the underlying assets.",
        "params": {
          "_approvalDelay": "the delay before a new strat can be approved.",
          "_name": "the name of the vault token.",
          "_symbol": "the symbol of the vault token.",
          "_token": "the token to maximize."
        }
      },
      "decimals()": {
        "details": "Returns the number of decimals used to get its user representation. For example, if `decimals` equals `2`, a balance of `505` tokens should be displayed to a user as `5,05` (`505 / 10 ** 2`). Tokens usually opt for a value of 18, imitating the relationship between Ether and Wei. This is the value {ERC20} uses, unless this function is overridden; NOTE: This information is only used for _display_ purposes: it in no way affects any of the arithmetic of the contract, including {IERC20-balanceOf} and {IERC20-transfer}."
      },
      "decreaseAllowance(address,uint256)": {
        "details": "Atomically decreases the allowance granted to `spender` by the caller. This is an alternative to {approve} that can be used as a mitigation for problems described in {IERC20-approve}. Emits an {Approval} event indicating the updated allowance. Requirements: - `spender` cannot be the zero address. - `spender` must have allowance for the caller of at least `subtractedValue`."
      },
      "deposit(uint256)": {
        "details": "The entrypoint of funds into the system. People deposit with this function into the vault. The vault is then in charge of sending funds into the strategy."
      },
      "depositAll()": {
        "details": "A helper function to call deposit() with all the sender's funds."
      },
      "earn()": {
        "details": "Function to send funds into the strategy and put them to work. It's primarily called by the vault's deposit() function."
      },
      "getPricePerFullShare()": {
        "details": "Function for various UIs to display the current value of one of our yield tokens. Returns an uint256 with 18 decimals of how much underlying asset one vault share represents."
      },
      "inCaseTokensGetStuck(address)": {
        "details": "Rescues random funds stuck that the strat can't handle.",
        "params": {
          "_token": "address of the token to rescue."
        }
      },
      "increaseAllowance(address,uint256)": {
        "details": "Atomically increases the allowance granted to `spender` by the caller. This is an alternative to {approve} that can be used as a mitigation for problems described in {IERC20-approve}. Emits an {Approval} event indicating the updated allowance. Requirements: - `spender` cannot be the zero address."
      },
      "initialize(address)": {
        "details": "Connects the vault to its initial strategy. One use only.",
        "params": {
          "_strategy": "the vault's initial strategy"
        }
      },
      "name()": {
        "details": "Returns the name of the token."
      },
      "owner()": {
        "details": "Returns the address of the current owner."
      },
      "proposeStrat(address)": {
        "details": "Sets the candidate for the new strat to use with this vault.",
        "params": {
          "_implementation": "The address of the candidate strategy."
        }
      },
      "renounceOwnership()": {
        "details": "Leaves the contract without owner. It will not be possible to call `onlyOwner` functions anymore. Can only be called by the current owner. NOTE: Renouncing ownership will leave the contract without an owner, thereby removing any functionality that is only available to the owner."
      },
      "symbol()": {
        "details": "Returns the symbol of the token, usually a shorter version of the name."
      },
      "totalSupply()": {
        "details": "See {IERC20-totalSupply}."
      },
      "transfer(address,uint256)": {
        "details": "See {IERC20-transfer}. Requirements: - `recipient` cannot be the zero address. - the caller must have a balance of at least `amount`."
      },
      "transferFrom(address,address,uint256)": {
        "details": "See {IERC20-transferFrom}. Emits an {Approval} event indicating the updated allowance. This is not required by the EIP. See the note at the beginning of {ERC20}. Requirements: - `sender` and `recipient` cannot be the zero address. - `sender` must have a balance of at least `amount`. - the caller must have allowance for ``sender``'s tokens of at least `amount`."
      },
      "transferOwnership(address)": {
        "details": "Transfers ownership of the contract to a new account (`newOwner`). Can only be called by the current owner."
      },
      "upgradeStrat()": {
        "details": "It switches the active strat for the strat candidate. After upgrading, the candidate implementation is set to the 0x00 address, and proposedTime to a time happening in +100 years for safety."
      },
      "withdraw(uint256)": {
        "details": "Function to exit the system. The vault will withdraw the required tokens from the strategy and pay up the token holder. A proportional number of IOU tokens are burned in the process."
      },
      "withdrawAll()": {
        "details": "A helper function to call withdraw() with all the sender's funds."
      }
    },
    "stateVariables": {
      "cumulativeDeposits": {
        "details": "simple mappings used to determine PnL denominated in LP tokens, as well as keep a generalized history of a user's protocol usage."
      },
      "initialized": {
        "details": "The stretegy's initialization status. Gives deployer 20 minutes after contract construction (constructionTime) to set the strategy implementation."
      }
    },
    "version": 1
  },
  "userdoc": {
    "kind": "user",
    "methods": {
      "agreeToTerms()": {
        "notice": "this does not affect vault permissions, and is read from client-side"
      },
      "deposit(uint256)": {
        "notice": "the _before and _after variables are used to account properly for 'burn-on-transaction' tokens.to ensure 'owner' can't sneak an implementation past the timelock, it's set to true"
      },
      "hasReadAndAcceptedTerms(address)": {
        "notice": "+ WEBSITE DISCLAIMER + While we have taken precautionary measures to protect our users, it is imperative that you read, understand and agree to the disclaimer below: Using our platform may involve financial risk of loss. Never invest more than what you can afford to lose. Never invest in a Reaper Vault with tokens you don't trust. Never invest in a Reaper Vault with tokens whose rules for minting you dont agree with. Ensure the accuracy of the contracts for the tokens in the Reaper Vault. Ensure the accuracy of the contracts for the Reaper Vault and Strategy you are depositing in. Check our documentation regularly for additional disclaimers and security assessments. ...and of course: DO YOUR OWN RESEARCH!!! By accepting these terms, you agree that Byte Masons, Fantom.Farm, or any parties affiliated with the deployment and management of these vaults or their attached strategies are not liable for any financial losses you might incur as a direct or indirect result of investing in any of the pools on the platform."
      },
      "initialize(address)": {
        "notice": "deployer has only 20 minutes after construction to connect the initial strategy."
      }
    },
    "version": 1
  }
}